{
  "contractName": "NtcSell",
  "abi": [
    {
      "inputs": [
        {
          "internalType": "address",
          "name": "token_address",
          "type": "address"
        }
      ],
      "stateMutability": "nonpayable",
      "type": "constructor"
    },
    {
      "anonymous": false,
      "inputs": [
        {
          "indexed": true,
          "internalType": "address",
          "name": "previousOwner",
          "type": "address"
        },
        {
          "indexed": true,
          "internalType": "address",
          "name": "newOwner",
          "type": "address"
        }
      ],
      "name": "OwnershipTransferred",
      "type": "event"
    },
    {
      "stateMutability": "payable",
      "type": "fallback"
    },
    {
      "inputs": [],
      "name": "owner",
      "outputs": [
        {
          "internalType": "address",
          "name": "",
          "type": "address"
        }
      ],
      "stateMutability": "view",
      "type": "function"
    },
    {
      "inputs": [],
      "name": "renounceOwnership",
      "outputs": [],
      "stateMutability": "nonpayable",
      "type": "function"
    },
    {
      "inputs": [
        {
          "internalType": "address",
          "name": "newOwner",
          "type": "address"
        }
      ],
      "name": "transferOwnership",
      "outputs": [],
      "stateMutability": "nonpayable",
      "type": "function"
    },
    {
      "inputs": [],
      "name": "sellNtc",
      "outputs": [],
      "stateMutability": "payable",
      "type": "function"
    }
  ],
  "bytecode": "0x608060405234801561001057600080fd5b506040516108d23803806108d2833981810160405281019061003291906101c4565b61004e61004361009560201b60201c565b61009d60201b60201c565b80600160006101000a81548173ffffffffffffffffffffffffffffffffffffffff021916908373ffffffffffffffffffffffffffffffffffffffff160217905550506101f1565b600033905090565b60008060009054906101000a900473ffffffffffffffffffffffffffffffffffffffff169050816000806101000a81548173ffffffffffffffffffffffffffffffffffffffff021916908373ffffffffffffffffffffffffffffffffffffffff1602179055508173ffffffffffffffffffffffffffffffffffffffff168173ffffffffffffffffffffffffffffffffffffffff167f8be0079c531659141344cd1fd0a4f28419497f9722a3daafe3b4186f6b6457e060405160405180910390a35050565b600080fd5b600073ffffffffffffffffffffffffffffffffffffffff82169050919050565b600061019182610166565b9050919050565b6101a181610186565b81146101ac57600080fd5b50565b6000815190506101be81610198565b92915050565b6000602082840312156101da576101d9610161565b5b60006101e8848285016101af565b91505092915050565b6106d2806102006000396000f3fe6080604052600436106100435760003560e01c8063715018a61461004e5780638da5cb5b14610065578063aec4b66b14610090578063f2fde38b1461009a57610044565b5b61004c6100c3565b005b34801561005a57600080fd5b506100636101d6565b005b34801561007157600080fd5b5061007a61025e565b604051610087919061048c565b60405180910390f35b6100986100c3565b005b3480156100a657600080fd5b506100c160048036038101906100bc91906104d8565b610287565b005b60006100cd61025e565b905060003390506000349050600160009054906101000a900473ffffffffffffffffffffffffffffffffffffffff1673ffffffffffffffffffffffffffffffffffffffff166340c10f1983836040518363ffffffff1660e01b815260040161013692919061051e565b600060405180830381600087803b15801561015057600080fd5b505af1158015610164573d6000803e3d6000fd5b505050508273ffffffffffffffffffffffffffffffffffffffff168160405161018c90610578565b60006040518083038185875af1925050503d80600081146101c9576040519150601f19603f3d011682016040523d82523d6000602084013e6101ce565b606091505b505050505050565b6101de61037f565b73ffffffffffffffffffffffffffffffffffffffff166101fc61025e565b73ffffffffffffffffffffffffffffffffffffffff1614610252576040517f08c379a0000000000000000000000000000000000000000000000000000000008152600401610249906105ea565b60405180910390fd5b61025c6000610387565b565b60008060009054906101000a900473ffffffffffffffffffffffffffffffffffffffff16905090565b61028f61037f565b73ffffffffffffffffffffffffffffffffffffffff166102ad61025e565b73ffffffffffffffffffffffffffffffffffffffff1614610303576040517f08c379a00000000000000000000000000000000000000000000000000000000081526004016102fa906105ea565b60405180910390fd5b600073ffffffffffffffffffffffffffffffffffffffff168173ffffffffffffffffffffffffffffffffffffffff161415610373576040517f08c379a000000000000000000000000000000000000000000000000000000000815260040161036a9061067c565b60405180910390fd5b61037c81610387565b50565b600033905090565b60008060009054906101000a900473ffffffffffffffffffffffffffffffffffffffff169050816000806101000a81548173ffffffffffffffffffffffffffffffffffffffff021916908373ffffffffffffffffffffffffffffffffffffffff1602179055508173ffffffffffffffffffffffffffffffffffffffff168173ffffffffffffffffffffffffffffffffffffffff167f8be0079c531659141344cd1fd0a4f28419497f9722a3daafe3b4186f6b6457e060405160405180910390a35050565b600073ffffffffffffffffffffffffffffffffffffffff82169050919050565b60006104768261044b565b9050919050565b6104868161046b565b82525050565b60006020820190506104a1600083018461047d565b92915050565b600080fd5b6104b58161046b565b81146104c057600080fd5b50565b6000813590506104d2816104ac565b92915050565b6000602082840312156104ee576104ed6104a7565b5b60006104fc848285016104c3565b91505092915050565b6000819050919050565b61051881610505565b82525050565b6000604082019050610533600083018561047d565b610540602083018461050f565b9392505050565b600081905092915050565b50565b6000610562600083610547565b915061056d82610552565b600082019050919050565b600061058382610555565b9150819050919050565b600082825260208201905092915050565b7f4f776e61626c653a2063616c6c6572206973206e6f7420746865206f776e6572600082015250565b60006105d460208361058d565b91506105df8261059e565b602082019050919050565b60006020820190508181036000830152610603816105c7565b9050919050565b7f4f776e61626c653a206e6577206f776e657220697320746865207a65726f206160008201527f6464726573730000000000000000000000000000000000000000000000000000602082015250565b600061066660268361058d565b91506106718261060a565b604082019050919050565b6000602082019050818103600083015261069581610659565b905091905056fea2646970667358221220d2a0c0a7333e639366b8aaab835c860492eba0bb6a9a9d9202052a452de578ac64736f6c63430008090033",
  "immutableReferences": {},
  "source": "pragma solidity ^0.8.9;\n\nimport \"./Neetcoin.sol\";\nimport \"@openzeppelin/contracts/access/Ownable.sol\";\n\n\ncontract NtcSell is Ownable {\n    Neetcoin _neetcoin;\n\n    constructor(address token_address) {\n        _neetcoin = Neetcoin(token_address);\n    }\n\n\nfallback() external payable {\n        sellNtc();\n      }\n\n    function sellNtc() payable public {\n      address owner = owner();\n      address whoToSend = msg.sender;\n      uint256 ntcToMint = msg.value;\n      _neetcoin.mint(whoToSend, ntcToMint);\n      owner.call{value: ntcToMint}('');\n    }\n}\n\n\n  ",
  "sourcePath": "/home/m0rs/neetcoin/contracts/ntcSell.sol",
  "compiler": {
    "name": "solc",
    "version": "0.8.9+commit.e5eed63a.Emscripten.clang"
  },
  "schemaVersion": "3.4.3",
  "updatedAt": "2021-11-28T15:47:54.376Z",
  "devdoc": {
    "kind": "dev",
    "methods": {
      "owner()": {
        "details": "Returns the address of the current owner."
      },
      "renounceOwnership()": {
        "details": "Leaves the contract without owner. It will not be possible to call `onlyOwner` functions anymore. Can only be called by the current owner. NOTE: Renouncing ownership will leave the contract without an owner, thereby removing any functionality that is only available to the owner."
      },
      "transferOwnership(address)": {
        "details": "Transfers ownership of the contract to a new account (`newOwner`). Can only be called by the current owner."
      }
    },
    "version": 1
  },
  "userdoc": {
    "kind": "user",
    "methods": {},
    "version": 1
  }
}